{
  "contractName": "BlackList",
  "abi": [
    {
      "anonymous": false,
      "inputs": [
        {
          "indexed": false,
          "internalType": "address",
          "name": "_user",
          "type": "address"
        }
      ],
      "name": "AddedBlackList",
      "type": "event"
    },
    {
      "anonymous": false,
      "inputs": [
        {
          "indexed": false,
          "internalType": "address",
          "name": "_user",
          "type": "address"
        }
      ],
      "name": "RemovedBlackList",
      "type": "event"
    },
    {
      "constant": true,
      "inputs": [
        {
          "internalType": "address",
          "name": "",
          "type": "address"
        }
      ],
      "name": "isBlackListed",
      "outputs": [
        {
          "internalType": "bool",
          "name": "",
          "type": "bool"
        }
      ],
      "payable": false,
      "stateMutability": "view",
      "type": "function"
    },
    {
      "constant": true,
      "inputs": [],
      "name": "owner",
      "outputs": [
        {
          "internalType": "address",
          "name": "",
          "type": "address"
        }
      ],
      "payable": false,
      "stateMutability": "view",
      "type": "function"
    },
    {
      "constant": false,
      "inputs": [
        {
          "internalType": "address",
          "name": "newOwner",
          "type": "address"
        }
      ],
      "name": "transferOwnership",
      "outputs": [],
      "payable": false,
      "stateMutability": "nonpayable",
      "type": "function"
    },
    {
      "constant": true,
      "inputs": [
        {
          "internalType": "address",
          "name": "_maker",
          "type": "address"
        }
      ],
      "name": "getBlackListStatus",
      "outputs": [
        {
          "internalType": "bool",
          "name": "",
          "type": "bool"
        }
      ],
      "payable": false,
      "stateMutability": "view",
      "type": "function"
    },
    {
      "constant": true,
      "inputs": [],
      "name": "getOwner",
      "outputs": [
        {
          "internalType": "address",
          "name": "",
          "type": "address"
        }
      ],
      "payable": false,
      "stateMutability": "view",
      "type": "function"
    },
    {
      "constant": false,
      "inputs": [
        {
          "internalType": "address",
          "name": "_evilUser",
          "type": "address"
        }
      ],
      "name": "addBlackList",
      "outputs": [],
      "payable": false,
      "stateMutability": "nonpayable",
      "type": "function"
    },
    {
      "constant": false,
      "inputs": [
        {
          "internalType": "address",
          "name": "_clearedUser",
          "type": "address"
        }
      ],
      "name": "removeBlackList",
      "outputs": [],
      "payable": false,
      "stateMutability": "nonpayable",
      "type": "function"
    }
  ],
  "bytecode": "0x6080604052600080546001600160a01b0319163317905561032f806100256000396000f3fe608060405234801561001057600080fd5b506004361061007d5760003560e01c80638da5cb5b1161005b5780638da5cb5b14610108578063e47d606014610110578063e4997dc514610136578063f2fde38b1461015c5761007d565b80630ecb93c01461008257806359bf1abe146100aa578063893d20e8146100e4575b600080fd5b6100a86004803603602081101561009857600080fd5b50356001600160a01b0316610182565b005b6100d0600480360360208110156100c057600080fd5b50356001600160a01b03166101f5565b604080519115158252519081900360200190f35b6100ec610213565b604080516001600160a01b039092168252519081900360200190f35b6100ec610222565b6100d06004803603602081101561012657600080fd5b50356001600160a01b0316610231565b6100a86004803603602081101561014c57600080fd5b50356001600160a01b0316610246565b6100a86004803603602081101561017257600080fd5b50356001600160a01b03166102b5565b6000546001600160a01b0316331461019957600080fd5b6001600160a01b038116600081815260016020818152604092839020805460ff1916909217909155815192835290517f42e160154868087d6bfdc0ca23d96a1c1cfa32f1b72ba9ba27b69b98a0d819dc9281900390910190a150565b6001600160a01b031660009081526001602052604090205460ff1690565b6000546001600160a01b031690565b6000546001600160a01b031681565b60016020526000908152604090205460ff1681565b6000546001600160a01b0316331461025d57600080fd5b6001600160a01b038116600081815260016020908152604091829020805460ff19169055815192835290517fd7e9ec6e6ecd65492dce6bf513cd6867560d49544421d0783ddf06e76c24470c9281900390910190a150565b6000546001600160a01b031633146102cc57600080fd5b6001600160a01b038116156102f757600080546001600160a01b0319166001600160a01b0383161790555b5056fea265627a7a723158209104e6c148b241a8e3b550da5cbc637fe6f5a0aaff7ed9c5a8e2a54dc369e79a64736f6c63430005110032",
  "source": "pragma solidity ^0.5.0;\n\nimport \"./Ownable.sol\";\n\ncontract BlackList is Ownable {\n\n    /////// Getters to allow the same blacklist to be used also by other contracts (including upgraded Tether) ///////\n    function getBlackListStatus(address _maker) public view returns (bool) {\n        return isBlackListed[_maker];\n    }\n\n    function getOwner() public view returns (address) {\n        return owner;\n    }\n\n    modifier notBlack() {\n        require(!isBlackListed[msg.sender]);\n        _;\n    }\n\n    mapping (address => bool) public isBlackListed;\n\n    function addBlackList (address _evilUser) public onlyOwner {\n        isBlackListed[_evilUser] = true;\n        emit AddedBlackList(_evilUser);\n    }\n\n    function removeBlackList (address _clearedUser) public onlyOwner {\n        isBlackListed[_clearedUser] = false;\n        emit RemovedBlackList(_clearedUser);\n    }\n\n    event AddedBlackList(address _user);\n\n    event RemovedBlackList(address _user);\n}",
  "sourcePath": "/Users/fanyongpeng/huione/newrep/usdh/tron/contracts/BlackList.sol",
  "compiler": {
    "name": "solc",
    "version": "0.5.17+commit.d19bba13.Emscripten.clang"
  },
  "schemaVersion": "3.4.1",
  "updatedAt": "2024-07-10T15:37:32.500Z",
  "devdoc": {
    "methods": {
      "transferOwnership(address)": {
        "details": "Allows the current owner to transfer control of the contract to a newOwner.",
        "params": {
          "newOwner": "The address to transfer ownership to."
        }
      }
    }
  },
  "userdoc": {
    "methods": {
      "getBlackListStatus(address)": {
        "notice": "//// Getters to allow the same blacklist to be used also by other contracts (including upgraded Tether) ///////"
      }
    }
  }
}