{
  "contractName": "UsdhToken",
  "abi": [
    {
      "inputs": [],
      "payable": false,
      "stateMutability": "nonpayable",
      "type": "constructor"
    },
    {
      "anonymous": false,
      "inputs": [
        {
          "indexed": false,
          "internalType": "address",
          "name": "_user",
          "type": "address"
        }
      ],
      "name": "AddedBlackList",
      "type": "event"
    },
    {
      "anonymous": false,
      "inputs": [
        {
          "indexed": true,
          "internalType": "address",
          "name": "owner",
          "type": "address"
        },
        {
          "indexed": true,
          "internalType": "address",
          "name": "spender",
          "type": "address"
        },
        {
          "indexed": false,
          "internalType": "uint256",
          "name": "value",
          "type": "uint256"
        }
      ],
      "name": "Approval",
      "type": "event"
    },
    {
      "anonymous": false,
      "inputs": [
        {
          "indexed": false,
          "internalType": "address",
          "name": "_user",
          "type": "address"
        }
      ],
      "name": "RemovedBlackList",
      "type": "event"
    },
    {
      "anonymous": false,
      "inputs": [
        {
          "indexed": true,
          "internalType": "address",
          "name": "from",
          "type": "address"
        },
        {
          "indexed": true,
          "internalType": "address",
          "name": "to",
          "type": "address"
        },
        {
          "indexed": false,
          "internalType": "uint256",
          "name": "value",
          "type": "uint256"
        }
      ],
      "name": "Transfer",
      "type": "event"
    },
    {
      "constant": true,
      "inputs": [],
      "name": "MAX_UINT",
      "outputs": [
        {
          "internalType": "uint256",
          "name": "",
          "type": "uint256"
        }
      ],
      "payable": false,
      "stateMutability": "view",
      "type": "function"
    },
    {
      "constant": false,
      "inputs": [
        {
          "internalType": "address",
          "name": "_evilUser",
          "type": "address"
        }
      ],
      "name": "addBlackList",
      "outputs": [],
      "payable": false,
      "stateMutability": "nonpayable",
      "type": "function"
    },
    {
      "constant": true,
      "inputs": [
        {
          "internalType": "address",
          "name": "owner",
          "type": "address"
        },
        {
          "internalType": "address",
          "name": "spender",
          "type": "address"
        }
      ],
      "name": "allowance",
      "outputs": [
        {
          "internalType": "uint256",
          "name": "",
          "type": "uint256"
        }
      ],
      "payable": false,
      "stateMutability": "view",
      "type": "function"
    },
    {
      "constant": false,
      "inputs": [
        {
          "internalType": "address",
          "name": "spender",
          "type": "address"
        },
        {
          "internalType": "uint256",
          "name": "value",
          "type": "uint256"
        }
      ],
      "name": "approve",
      "outputs": [
        {
          "internalType": "bool",
          "name": "",
          "type": "bool"
        }
      ],
      "payable": false,
      "stateMutability": "nonpayable",
      "type": "function"
    },
    {
      "constant": true,
      "inputs": [
        {
          "internalType": "address",
          "name": "account",
          "type": "address"
        }
      ],
      "name": "balanceOf",
      "outputs": [
        {
          "internalType": "uint256",
          "name": "",
          "type": "uint256"
        }
      ],
      "payable": false,
      "stateMutability": "view",
      "type": "function"
    },
    {
      "constant": true,
      "inputs": [],
      "name": "decimals",
      "outputs": [
        {
          "internalType": "uint8",
          "name": "",
          "type": "uint8"
        }
      ],
      "payable": false,
      "stateMutability": "view",
      "type": "function"
    },
    {
      "constant": false,
      "inputs": [
        {
          "internalType": "address",
          "name": "spender",
          "type": "address"
        },
        {
          "internalType": "uint256",
          "name": "subtractedValue",
          "type": "uint256"
        }
      ],
      "name": "decreaseAllowance",
      "outputs": [
        {
          "internalType": "bool",
          "name": "",
          "type": "bool"
        }
      ],
      "payable": false,
      "stateMutability": "nonpayable",
      "type": "function"
    },
    {
      "constant": true,
      "inputs": [
        {
          "internalType": "address",
          "name": "_maker",
          "type": "address"
        }
      ],
      "name": "getBlackListStatus",
      "outputs": [
        {
          "internalType": "bool",
          "name": "",
          "type": "bool"
        }
      ],
      "payable": false,
      "stateMutability": "view",
      "type": "function"
    },
    {
      "constant": true,
      "inputs": [],
      "name": "getOwner",
      "outputs": [
        {
          "internalType": "address",
          "name": "",
          "type": "address"
        }
      ],
      "payable": false,
      "stateMutability": "view",
      "type": "function"
    },
    {
      "constant": false,
      "inputs": [
        {
          "internalType": "address",
          "name": "spender",
          "type": "address"
        },
        {
          "internalType": "uint256",
          "name": "addedValue",
          "type": "uint256"
        }
      ],
      "name": "increaseAllowance",
      "outputs": [
        {
          "internalType": "bool",
          "name": "",
          "type": "bool"
        }
      ],
      "payable": false,
      "stateMutability": "nonpayable",
      "type": "function"
    },
    {
      "constant": true,
      "inputs": [
        {
          "internalType": "address",
          "name": "",
          "type": "address"
        }
      ],
      "name": "isBlackListed",
      "outputs": [
        {
          "internalType": "bool",
          "name": "",
          "type": "bool"
        }
      ],
      "payable": false,
      "stateMutability": "view",
      "type": "function"
    },
    {
      "constant": false,
      "inputs": [
        {
          "internalType": "uint256",
          "name": "amount",
          "type": "uint256"
        }
      ],
      "name": "issue",
      "outputs": [],
      "payable": false,
      "stateMutability": "nonpayable",
      "type": "function"
    },
    {
      "constant": true,
      "inputs": [],
      "name": "name",
      "outputs": [
        {
          "internalType": "string",
          "name": "",
          "type": "string"
        }
      ],
      "payable": false,
      "stateMutability": "view",
      "type": "function"
    },
    {
      "constant": true,
      "inputs": [],
      "name": "owner",
      "outputs": [
        {
          "internalType": "address",
          "name": "",
          "type": "address"
        }
      ],
      "payable": false,
      "stateMutability": "view",
      "type": "function"
    },
    {
      "constant": false,
      "inputs": [
        {
          "internalType": "uint256",
          "name": "amount",
          "type": "uint256"
        }
      ],
      "name": "redeem",
      "outputs": [],
      "payable": false,
      "stateMutability": "nonpayable",
      "type": "function"
    },
    {
      "constant": false,
      "inputs": [
        {
          "internalType": "address",
          "name": "_clearedUser",
          "type": "address"
        }
      ],
      "name": "removeBlackList",
      "outputs": [],
      "payable": false,
      "stateMutability": "nonpayable",
      "type": "function"
    },
    {
      "constant": true,
      "inputs": [],
      "name": "symbol",
      "outputs": [
        {
          "internalType": "string",
          "name": "",
          "type": "string"
        }
      ],
      "payable": false,
      "stateMutability": "view",
      "type": "function"
    },
    {
      "constant": true,
      "inputs": [],
      "name": "totalSupply",
      "outputs": [
        {
          "internalType": "uint256",
          "name": "",
          "type": "uint256"
        }
      ],
      "payable": false,
      "stateMutability": "view",
      "type": "function"
    },
    {
      "constant": false,
      "inputs": [
        {
          "internalType": "address",
          "name": "recipient",
          "type": "address"
        },
        {
          "internalType": "uint256",
          "name": "amount",
          "type": "uint256"
        }
      ],
      "name": "transfer",
      "outputs": [
        {
          "internalType": "bool",
          "name": "",
          "type": "bool"
        }
      ],
      "payable": false,
      "stateMutability": "nonpayable",
      "type": "function"
    },
    {
      "constant": false,
      "inputs": [
        {
          "internalType": "address",
          "name": "sender",
          "type": "address"
        },
        {
          "internalType": "address",
          "name": "recipient",
          "type": "address"
        },
        {
          "internalType": "uint256",
          "name": "amount",
          "type": "uint256"
        }
      ],
      "name": "transferFrom",
      "outputs": [
        {
          "internalType": "bool",
          "name": "",
          "type": "bool"
        }
      ],
      "payable": false,
      "stateMutability": "nonpayable",
      "type": "function"
    },
    {
      "constant": false,
      "inputs": [
        {
          "internalType": "address",
          "name": "newOwner",
          "type": "address"
        }
      ],
      "name": "transferOwnership",
      "outputs": [],
      "payable": false,
      "stateMutability": "nonpayable",
      "type": "function"
    }
  ],
  "bytecode": "0x60806040523480156200001157600080fd5b506040805180820182526006808252651213c81554d160d21b6020808401918252845180860190955260048552630aaa688960e31b90850152600080546001600160a01b0319163317905582519293926200006f916005916200023c565b508151620000859060069060208501906200023c565b506007805460ff191660ff9290921691909117905550620000c5905033620000ac620000cb565b60ff16600a0a6402540be40002620000d560201b60201c565b620002de565b60075460ff165b90565b6001600160a01b03821662000131576040805162461bcd60e51b815260206004820152601f60248201527f54524332303a206d696e7420746f20746865207a65726f206164647265737300604482015290519081900360640190fd5b6200014d81600454620001da60201b62000b7e1790919060201c565b6004556001600160a01b0382166000908152600260209081526040909120546200018291839062000b7e620001da821b17901c565b6001600160a01b03831660008181526002602090815260408083209490945583518581529351929391927fddf252ad1be2c89b69c2b068fc378daa952ba7f163c4a11628f55a4df523b3ef9281900390910190a35050565b60008282018381101562000235576040805162461bcd60e51b815260206004820152601b60248201527f536166654d6174683a206164646974696f6e206f766572666c6f770000000000604482015290519081900360640190fd5b9392505050565b828054600181600116156101000203166002900490600052602060002090601f016020900481019282601f106200027f57805160ff1916838001178555620002af565b82800160010185558215620002af579182015b82811115620002af57825182559160200191906001019062000292565b50620002bd929150620002c1565b5090565b620000d291905b80821115620002bd5760008155600101620002c8565b610e9080620002ee6000396000f3fe608060405234801561001057600080fd5b50600436106101375760003560e01c80638da5cb5b116100b8578063db006a751161007c578063db006a75146103b0578063dd62ed3e146103cd578063e47d6060146103fb578063e4997dc514610421578063e5b5019a14610447578063f2fde38b1461044f57610137565b80638da5cb5b1461032b57806395d89b4114610333578063a457c2d71461033b578063a9059cbb14610367578063cc872b661461039357610137565b8063313ce567116100ff578063313ce56714610271578063395093511461028f57806359bf1abe146102bb57806370a08231146102e1578063893d20e81461030757610137565b806306fdde031461013c578063095ea7b3146101b95780630ecb93c0146101f957806318160ddd1461022157806323b872dd1461023b575b600080fd5b610144610475565b6040805160208082528351818301528351919283929083019185019080838360005b8381101561017e578181015183820152602001610166565b50505050905090810190601f1680156101ab5780820380516001836020036101000a031916815260200191505b509250505060405180910390f35b6101e5600480360360408110156101cf57600080fd5b506001600160a01b03813516906020013561050b565b604080519115158252519081900360200190f35b61021f6004803603602081101561020f57600080fd5b50356001600160a01b0316610521565b005b610229610594565b60408051918252519081900360200190f35b6101e56004803603606081101561025157600080fd5b506001600160a01b0381358116916020810135909116906040013561059a565b610279610642565b6040805160ff9092168252519081900360200190f35b6101e5600480360360408110156102a557600080fd5b506001600160a01b03813516906020013561064b565b6101e5600480360360208110156102d157600080fd5b50356001600160a01b0316610687565b610229600480360360208110156102f757600080fd5b50356001600160a01b03166106a5565b61030f6106c0565b604080516001600160a01b039092168252519081900360200190f35b61030f6106cf565b6101446106de565b6101e56004803603604081101561035157600080fd5b506001600160a01b03813516906020013561073f565b6101e56004803603604081101561037d57600080fd5b506001600160a01b03813516906020013561077b565b61021f600480360360208110156103a957600080fd5b50356107a3565b61021f600480360360208110156103c657600080fd5b50356107ce565b610229600480360360408110156103e357600080fd5b506001600160a01b03813581169160200135166107f6565b6101e56004803603602081101561041157600080fd5b50356001600160a01b0316610821565b61021f6004803603602081101561043757600080fd5b50356001600160a01b0316610836565b6102296108a5565b61021f6004803603602081101561046557600080fd5b50356001600160a01b03166108ab565b60058054604080516020601f60026000196101006001881615020190951694909404938401819004810282018101909252828152606093909290918301828280156105015780601f106104d657610100808354040283529160200191610501565b820191906000526020600020905b8154815290600101906020018083116104e457829003601f168201915b5050505050905090565b60006105183384846108f1565b50600192915050565b6000546001600160a01b0316331461053857600080fd5b6001600160a01b038116600081815260016020818152604092839020805460ff1916909217909155815192835290517f42e160154868087d6bfdc0ca23d96a1c1cfa32f1b72ba9ba27b69b98a0d819dc9281900390910190a150565b60045490565b6001600160a01b03831660009081526001602052604081205460ff16156105c057600080fd5b6105cb8484846109dd565b6001600160a01b03841660009081526003602090815260408083203384529091529020546000191115610638576001600160a01b038416600090815260036020908152604080832033808552925290912054610638918691610633908663ffffffff610b2116565b6108f1565b5060019392505050565b60075460ff1690565b3360008181526003602090815260408083206001600160a01b03871684529091528120549091610518918590610633908663ffffffff610b7e16565b6001600160a01b031660009081526001602052604090205460ff1690565b6001600160a01b031660009081526002602052604090205490565b6000546001600160a01b031690565b6000546001600160a01b031681565b60068054604080516020601f60026000196101006001881615020190951694909404938401819004810282018101909252828152606093909290918301828280156105015780601f106104d657610100808354040283529160200191610501565b3360008181526003602090815260408083206001600160a01b03871684529091528120549091610518918590610633908663ffffffff610b2116565b3360009081526001602052604081205460ff161561079857600080fd5b6105183384846109dd565b6000546001600160a01b031633146107ba57600080fd5b6107cb6107c56106c0565b82610bdf565b50565b6000546001600160a01b031633146107e557600080fd5b6107cb6107f06106c0565b82610cd1565b6001600160a01b03918216600090815260036020908152604080832093909416825291909152205490565b60016020526000908152604090205460ff1681565b6000546001600160a01b0316331461084d57600080fd5b6001600160a01b038116600081815260016020908152604091829020805460ff19169055815192835290517fd7e9ec6e6ecd65492dce6bf513cd6867560d49544421d0783ddf06e76c24470c9281900390910190a150565b60001981565b6000546001600160a01b031633146108c257600080fd5b6001600160a01b038116156107cb57600080546001600160a01b0383166001600160a01b031990911617905550565b6001600160a01b0383166109365760405162461bcd60e51b8152600401808060200182810382526024815260200180610e176024913960400191505060405180910390fd5b6001600160a01b03821661097b5760405162461bcd60e51b8152600401808060200182810382526022815260200180610dd06022913960400191505060405180910390fd5b6001600160a01b03808416600081815260036020908152604080832094871680845294825291829020859055815185815291517f8c5be1e5ebec7d5bd14f71427d1e84f3dd0314c0f7b2291e5b200ac8c7c3b9259281900390910190a3505050565b6001600160a01b038316610a225760405162461bcd60e51b8152600401808060200182810382526025815260200180610df26025913960400191505060405180910390fd5b6001600160a01b038216610a675760405162461bcd60e51b8152600401808060200182810382526023815260200180610dad6023913960400191505060405180910390fd5b6001600160a01b038316600090815260026020526040902054610a90908263ffffffff610b2116565b6001600160a01b038085166000908152600260205260408082209390935590841681522054610ac5908263ffffffff610b7e16565b6001600160a01b0380841660008181526002602090815260409182902094909455805185815290519193928716927fddf252ad1be2c89b69c2b068fc378daa952ba7f163c4a11628f55a4df523b3ef92918290030190a3505050565b600082821115610b78576040805162461bcd60e51b815260206004820152601e60248201527f536166654d6174683a207375627472616374696f6e206f766572666c6f770000604482015290519081900360640190fd5b50900390565b600082820183811015610bd8576040805162461bcd60e51b815260206004820152601b60248201527f536166654d6174683a206164646974696f6e206f766572666c6f770000000000604482015290519081900360640190fd5b9392505050565b6001600160a01b038216610c3a576040805162461bcd60e51b815260206004820152601f60248201527f54524332303a206d696e7420746f20746865207a65726f206164647265737300604482015290519081900360640190fd5b600454610c4d908263ffffffff610b7e16565b6004556001600160a01b038216600090815260026020526040902054610c79908263ffffffff610b7e16565b6001600160a01b03831660008181526002602090815260408083209490945583518581529351929391927fddf252ad1be2c89b69c2b068fc378daa952ba7f163c4a11628f55a4df523b3ef9281900390910190a35050565b6001600160a01b038216610d165760405162461bcd60e51b8152600401808060200182810382526021815260200180610e3b6021913960400191505060405180910390fd5b600454610d29908263ffffffff610b2116565b6004556001600160a01b038216600090815260026020526040902054610d55908263ffffffff610b2116565b6001600160a01b0383166000818152600260209081526040808320949094558351858152935191937fddf252ad1be2c89b69c2b068fc378daa952ba7f163c4a11628f55a4df523b3ef929081900390910190a3505056fe54524332303a207472616e7366657220746f20746865207a65726f206164647265737354524332303a20617070726f766520746f20746865207a65726f206164647265737354524332303a207472616e736665722066726f6d20746865207a65726f206164647265737354524332303a20617070726f76652066726f6d20746865207a65726f206164647265737354524332303a206275726e2066726f6d20746865207a65726f2061646472657373a265627a7a723158204b0e1872b6ff859d21c6270b86722e0d06a0a07d8192514e7c53921bd34cd52664736f6c63430005110032",
  "source": "// 0.5.1-c8a2\n// Enable optimization\npragma solidity ^0.5.0;\n\nimport \"./TRC20.sol\";\nimport \"./TRC20Detailed.sol\";\nimport \"./BlackList.sol\";\n\n/**\n * @title SimpleToken\n * @dev Very simple TRC20 Token example, where all tokens are pre-assigned to the creator.\n * Note they can later distribute these tokens as they wish using `transfer` and other\n * `TRC20` functions.\n */\ncontract UsdhToken is TRC20, TRC20Detailed {\n\n    /**\n     * @dev Constructor that gives msg.sender all of existing tokens.\n     */\n    constructor () public TRC20Detailed(\"HO USD\", \"USDH\", 6) {\n        _mint(msg.sender, 10000000000 * (10 ** uint256(decimals())));\n    }\n\n}",
  "sourcePath": "/Users/fanyongpeng/huione/newrep/usdh/tron/contracts/UsdhToken.sol",
  "compiler": {
    "name": "solc",
    "version": "0.5.17+commit.d19bba13.Emscripten.clang"
  },
  "schemaVersion": "3.4.1",
  "updatedAt": "2024-07-10T15:37:32.553Z",
  "devdoc": {
    "details": "Very simple TRC20 Token example, where all tokens are pre-assigned to the creator. Note they can later distribute these tokens as they wish using `transfer` and other `TRC20` functions.",
    "methods": {
      "allowance(address,address)": {
        "details": "See {ITRC20-allowance}."
      },
      "approve(address,uint256)": {
        "details": "See {ITRC20-approve}.     * Requirements:     * - `spender` cannot be the zero address."
      },
      "balanceOf(address)": {
        "details": "See {ITRC20-balanceOf}."
      },
      "constructor": {
        "details": "Constructor that gives msg.sender all of existing tokens."
      },
      "decimals()": {
        "details": "Returns the number of decimals used to get its user representation. For example, if `decimals` equals `2`, a balance of `505` tokens should be displayed to a user as `5,05` (`505 / 10 ** 2`).     * Tokens usually opt for a value of 18, imitating the relationship between Ether and Wei.     * NOTE: This information is only used for _display_ purposes: it in no way affects any of the arithmetic of the contract, including {ITRC20-balanceOf} and {ITRC20-transfer}."
      },
      "decreaseAllowance(address,uint256)": {
        "details": "Atomically decreases the allowance granted to `spender` by the caller.     * This is an alternative to {approve} that can be used as a mitigation for problems described in {ITRC20-approve}.     * Emits an {Approval} event indicating the updated allowance.     * Requirements:     * - `spender` cannot be the zero address. - `spender` must have allowance for the caller of at least `subtractedValue`."
      },
      "increaseAllowance(address,uint256)": {
        "details": "Atomically increases the allowance granted to `spender` by the caller.     * This is an alternative to {approve} that can be used as a mitigation for problems described in {ITRC20-approve}.     * Emits an {Approval} event indicating the updated allowance.     * Requirements:     * - `spender` cannot be the zero address."
      },
      "name()": {
        "details": "Returns the name of the token."
      },
      "symbol()": {
        "details": "Returns the symbol of the token, usually a shorter version of the name."
      },
      "totalSupply()": {
        "details": "See {ITRC20-totalSupply}."
      },
      "transfer(address,uint256)": {
        "details": "See {ITRC20-transfer}.     * Requirements:     * - `recipient` cannot be the zero address. - the caller must have a balance of at least `amount`."
      },
      "transferFrom(address,address,uint256)": {
        "details": "See {ITRC20-transferFrom}.     * Emits an {Approval} event indicating the updated allowance. This is not required by the EIP. See the note at the beginning of {TRC20};     * Requirements: - `sender` and `recipient` cannot be the zero address. - `sender` must have a balance of at least `value`. - the caller must have allowance for `sender`'s tokens of at least `amount`."
      },
      "transferOwnership(address)": {
        "details": "Allows the current owner to transfer control of the contract to a newOwner.",
        "params": {
          "newOwner": "The address to transfer ownership to."
        }
      }
    },
    "title": "SimpleToken"
  },
  "userdoc": {
    "methods": {
      "getBlackListStatus(address)": {
        "notice": "//// Getters to allow the same blacklist to be used also by other contracts (including upgraded Tether) ///////"
      }
    }
  }
}